{
  "contractName": "Database",
  "abi": [
    {
      "constant": true,
      "inputs": [],
      "name": "owner",
      "outputs": [
        {
          "name": "",
          "type": "address"
        }
      ],
      "payable": false,
      "stateMutability": "view",
      "type": "function"
    },
    {
      "constant": false,
      "inputs": [
        {
          "name": "newOwner",
          "type": "address"
        }
      ],
      "name": "transferOwnership",
      "outputs": [],
      "payable": false,
      "stateMutability": "nonpayable",
      "type": "function"
    },
    {
      "inputs": [],
      "payable": false,
      "stateMutability": "nonpayable",
      "type": "constructor"
    },
    {
      "anonymous": false,
      "inputs": [
        {
          "indexed": true,
          "name": "contractAddress",
          "type": "address"
        },
        {
          "indexed": false,
          "name": "allowed",
          "type": "bool"
        }
      ],
      "name": "StorageModified",
      "type": "event"
    },
    {
      "anonymous": false,
      "inputs": [
        {
          "indexed": true,
          "name": "previousOwner",
          "type": "address"
        },
        {
          "indexed": true,
          "name": "newOwner",
          "type": "address"
        }
      ],
      "name": "OwnershipTransferred",
      "type": "event"
    },
    {
      "constant": false,
      "inputs": [
        {
          "name": "_storageContract",
          "type": "address"
        },
        {
          "name": "_allowed",
          "type": "bool"
        }
      ],
      "name": "setStorageContract",
      "outputs": [],
      "payable": false,
      "stateMutability": "nonpayable",
      "type": "function"
    },
    {
      "constant": true,
      "inputs": [
        {
          "name": "key",
          "type": "bytes32"
        }
      ],
      "name": "getBytes32",
      "outputs": [
        {
          "name": "",
          "type": "bytes32"
        }
      ],
      "payable": false,
      "stateMutability": "view",
      "type": "function"
    },
    {
      "constant": false,
      "inputs": [
        {
          "name": "key",
          "type": "bytes32"
        },
        {
          "name": "value",
          "type": "bytes32"
        }
      ],
      "name": "setBytes32",
      "outputs": [],
      "payable": false,
      "stateMutability": "nonpayable",
      "type": "function"
    },
    {
      "constant": true,
      "inputs": [
        {
          "name": "key",
          "type": "bytes32"
        }
      ],
      "name": "getNumber",
      "outputs": [
        {
          "name": "",
          "type": "uint256"
        }
      ],
      "payable": false,
      "stateMutability": "view",
      "type": "function"
    },
    {
      "constant": false,
      "inputs": [
        {
          "name": "key",
          "type": "bytes32"
        },
        {
          "name": "value",
          "type": "uint256"
        }
      ],
      "name": "setNumber",
      "outputs": [],
      "payable": false,
      "stateMutability": "nonpayable",
      "type": "function"
    },
    {
      "constant": true,
      "inputs": [
        {
          "name": "key",
          "type": "bytes32"
        }
      ],
      "name": "getBytes",
      "outputs": [
        {
          "name": "",
          "type": "bytes"
        }
      ],
      "payable": false,
      "stateMutability": "view",
      "type": "function"
    },
    {
      "constant": false,
      "inputs": [
        {
          "name": "key",
          "type": "bytes32"
        },
        {
          "name": "value",
          "type": "bytes"
        }
      ],
      "name": "setBytes",
      "outputs": [],
      "payable": false,
      "stateMutability": "nonpayable",
      "type": "function"
    },
    {
      "constant": true,
      "inputs": [
        {
          "name": "key",
          "type": "bytes32"
        }
      ],
      "name": "getString",
      "outputs": [
        {
          "name": "",
          "type": "string"
        }
      ],
      "payable": false,
      "stateMutability": "view",
      "type": "function"
    },
    {
      "constant": false,
      "inputs": [
        {
          "name": "key",
          "type": "bytes32"
        },
        {
          "name": "value",
          "type": "string"
        }
      ],
      "name": "setString",
      "outputs": [],
      "payable": false,
      "stateMutability": "nonpayable",
      "type": "function"
    },
    {
      "constant": true,
      "inputs": [
        {
          "name": "key",
          "type": "bytes32"
        }
      ],
      "name": "getBytesArray",
      "outputs": [
        {
          "name": "",
          "type": "bytes32[]"
        }
      ],
      "payable": false,
      "stateMutability": "view",
      "type": "function"
    },
    {
      "constant": true,
      "inputs": [
        {
          "name": "key",
          "type": "bytes32"
        },
        {
          "name": "index",
          "type": "uint256"
        }
      ],
      "name": "getBytesArrayIndex",
      "outputs": [
        {
          "name": "",
          "type": "bytes32"
        }
      ],
      "payable": false,
      "stateMutability": "view",
      "type": "function"
    },
    {
      "constant": true,
      "inputs": [
        {
          "name": "key",
          "type": "bytes32"
        }
      ],
      "name": "getBytesArrayLength",
      "outputs": [
        {
          "name": "",
          "type": "uint256"
        }
      ],
      "payable": false,
      "stateMutability": "view",
      "type": "function"
    },
    {
      "constant": false,
      "inputs": [
        {
          "name": "key",
          "type": "bytes32"
        },
        {
          "name": "value",
          "type": "bytes32"
        }
      ],
      "name": "pushBytesArray",
      "outputs": [],
      "payable": false,
      "stateMutability": "nonpayable",
      "type": "function"
    },
    {
      "constant": false,
      "inputs": [
        {
          "name": "key",
          "type": "bytes32"
        },
        {
          "name": "index",
          "type": "uint256"
        },
        {
          "name": "value",
          "type": "bytes32"
        }
      ],
      "name": "setBytesArrayIndex",
      "outputs": [],
      "payable": false,
      "stateMutability": "nonpayable",
      "type": "function"
    },
    {
      "constant": false,
      "inputs": [
        {
          "name": "key",
          "type": "bytes32"
        },
        {
          "name": "value",
          "type": "bytes32[]"
        }
      ],
      "name": "setBytesArray",
      "outputs": [],
      "payable": false,
      "stateMutability": "nonpayable",
      "type": "function"
    },
    {
      "constant": true,
      "inputs": [
        {
          "name": "key",
          "type": "bytes32"
        }
      ],
      "name": "getIntArray",
      "outputs": [
        {
          "name": "",
          "type": "int256[]"
        }
      ],
      "payable": false,
      "stateMutability": "view",
      "type": "function"
    },
    {
      "constant": true,
      "inputs": [
        {
          "name": "key",
          "type": "bytes32"
        },
        {
          "name": "index",
          "type": "uint256"
        }
      ],
      "name": "getIntArrayIndex",
      "outputs": [
        {
          "name": "",
          "type": "int256"
        }
      ],
      "payable": false,
      "stateMutability": "view",
      "type": "function"
    },
    {
      "constant": true,
      "inputs": [
        {
          "name": "key",
          "type": "bytes32"
        }
      ],
      "name": "getIntArrayLength",
      "outputs": [
        {
          "name": "",
          "type": "uint256"
        }
      ],
      "payable": false,
      "stateMutability": "view",
      "type": "function"
    },
    {
      "constant": false,
      "inputs": [
        {
          "name": "key",
          "type": "bytes32"
        },
        {
          "name": "value",
          "type": "int256"
        }
      ],
      "name": "pushIntArray",
      "outputs": [],
      "payable": false,
      "stateMutability": "nonpayable",
      "type": "function"
    },
    {
      "constant": false,
      "inputs": [
        {
          "name": "key",
          "type": "bytes32"
        },
        {
          "name": "index",
          "type": "uint256"
        },
        {
          "name": "value",
          "type": "int256"
        }
      ],
      "name": "setIntArrayIndex",
      "outputs": [],
      "payable": false,
      "stateMutability": "nonpayable",
      "type": "function"
    },
    {
      "constant": false,
      "inputs": [
        {
          "name": "key",
          "type": "bytes32"
        },
        {
          "name": "value",
          "type": "int256[]"
        }
      ],
      "name": "setIntArray",
      "outputs": [],
      "payable": false,
      "stateMutability": "nonpayable",
      "type": "function"
    },
    {
      "constant": true,
      "inputs": [
        {
          "name": "key",
          "type": "bytes32"
        }
      ],
      "name": "getAddressArray",
      "outputs": [
        {
          "name": "",
          "type": "address[]"
        }
      ],
      "payable": false,
      "stateMutability": "view",
      "type": "function"
    },
    {
      "constant": true,
      "inputs": [
        {
          "name": "key",
          "type": "bytes32"
        },
        {
          "name": "index",
          "type": "uint256"
        }
      ],
      "name": "getAddressArrayIndex",
      "outputs": [
        {
          "name": "",
          "type": "address"
        }
      ],
      "payable": false,
      "stateMutability": "view",
      "type": "function"
    },
    {
      "constant": true,
      "inputs": [
        {
          "name": "key",
          "type": "bytes32"
        }
      ],
      "name": "getAddressArrayLength",
      "outputs": [
        {
          "name": "",
          "type": "uint256"
        }
      ],
      "payable": false,
      "stateMutability": "view",
      "type": "function"
    },
    {
      "constant": false,
      "inputs": [
        {
          "name": "key",
          "type": "bytes32"
        },
        {
          "name": "value",
          "type": "address"
        }
      ],
      "name": "pushAddressArray",
      "outputs": [],
      "payable": false,
      "stateMutability": "nonpayable",
      "type": "function"
    },
    {
      "constant": false,
      "inputs": [
        {
          "name": "key",
          "type": "bytes32"
        },
        {
          "name": "index",
          "type": "uint256"
        },
        {
          "name": "value",
          "type": "address"
        }
      ],
      "name": "setAddressArrayIndex",
      "outputs": [],
      "payable": false,
      "stateMutability": "nonpayable",
      "type": "function"
    },
    {
      "constant": false,
      "inputs": [
        {
          "name": "key",
          "type": "bytes32"
        },
        {
          "name": "value",
          "type": "address[]"
        }
      ],
      "name": "setAddressArray",
      "outputs": [],
      "payable": false,
      "stateMutability": "nonpayable",
      "type": "function"
    }
  ],
  "bytecode": "0x608060405234801561001057600080fd5b50336000806101000a81548173ffffffffffffffffffffffffffffffffffffffff021916908373ffffffffffffffffffffffffffffffffffffffff160217905550612255806100606000396000f300608060405260043610610175576000357c0100000000000000000000000000000000000000000000000000000000900463ffffffff1680630dd63ba31461017a5780631b929940146101bf5780632d2899b6146101fa5780632e28d084146102805780632ecb0d64146102c95780632fc94ba61461030e57806343cb0af7146103535780634e91db081461039857806354c552db146103d757806356e5cf2e146104125780635948f7331461045b5780635eca2aeb146104e15780636e8995501461053857806387ddf6cd146105815780638d152d78146105dc5780638da5cb5b1461061b5780638db0e83b14610672578063986e791a146106f8578063a21a65ae146107a2578063a2987245146107e7578063a42b6bf114610836578063a4f63ec814610885578063a6ed563e146108ce578063a9fcf76b1461091b578063c031a18014610964578063dd151d1e14610a0e578063e16e934014610a5f578063ec672cf614610ada578063f2fde38b14610b23575b600080fd5b34801561018657600080fd5b506101bd60048036038101908080356000191690602001909291908035906020019092919080359060200190929190505050610b66565b005b3480156101cb57600080fd5b506101f8600480360381019080803560001916906020019092919080359060200190929190505050610c89565b005b34801561020657600080fd5b506102296004803603810190808035600019169060200190929190505050610cd2565b6040518080602001828103825283818151815260200191508051906020019060200280838360005b8381101561026c578082015181840152602081019050610251565b505050509050019250505060405180910390f35b34801561028c57600080fd5b506102c76004803603810190808035600019169060200190929190803590602001908201803590602001919091929391929390505050610d45565b005b3480156102d557600080fd5b506102f86004803603810190808035600019169060200190929190505050610e5c565b6040518082815260200191505060405180910390f35b34801561031a57600080fd5b5061033d6004803603810190808035600019169060200190929190505050610e85565b6040518082815260200191505060405180910390f35b34801561035f57600080fd5b506103826004803603810190808035600019169060200190929190505050610ead565b6040518082815260200191505060405180910390f35b3480156103a457600080fd5b506103d560048036038101908080356000191690602001909291908035600019169060200190929190505050610ed5565b005b3480156103e357600080fd5b50610410600480360381019080803560001916906020019092919080359060200190929190505050610fe4565b005b34801561041e57600080fd5b5061045960048036038101908080356000191690602001909291908035906020019082018035906020019190919293919293905050506110f6565b005b34801561046757600080fd5b5061048a600480360381019080803560001916906020019092919050505061120d565b6040518080602001828103825283818151815260200191508051906020019060200280838360005b838110156104cd5780820151818401526020810190506104b2565b505050509050019250505060405180910390f35b3480156104ed57600080fd5b5061051a6004803603810190808035600019169060200190929190803590602001909291905050506112b6565b60405180826000191660001916815260200191505060405180910390f35b34801561054457600080fd5b5061057f60048036038101908080356000191690602001909291908035906020019082018035906020019190919293919293905050506112f3565b005b34801561058d57600080fd5b506105da600480360381019080803560001916906020019092919080359060200190929190803573ffffffffffffffffffffffffffffffffffffffff16906020019092919050505061140a565b005b3480156105e857600080fd5b5061061960048036038101908080356000191690602001909291908035600019169060200190929190505050611567565b005b34801561062757600080fd5b506106306115b6565b604051808273ffffffffffffffffffffffffffffffffffffffff1673ffffffffffffffffffffffffffffffffffffffff16815260200191505060405180910390f35b34801561067e57600080fd5b506106a160048036038101908080356000191690602001909291905050506115db565b6040518080602001828103825283818151815260200191508051906020019060200280838360005b838110156106e45780820151818401526020810190506106c9565b505050509050019250505060405180910390f35b34801561070457600080fd5b506107276004803603810190808035600019169060200190929190505050611652565b6040518080602001828103825283818151815260200191508051906020019080838360005b8381101561076757808201518184015260208101905061074c565b50505050905090810190601f1680156107945780820380516001836020036101000a031916815260200191505b509250505060405180910390f35b3480156107ae57600080fd5b506107d1600480360381019080803560001916906020019092919050505061170f565b6040518082815260200191505060405180910390f35b3480156107f357600080fd5b50610820600480360381019080803560001916906020019092919080359060200190929190505050611737565b6040518082815260200191505060405180910390f35b34801561084257600080fd5b50610883600480360381019080803573ffffffffffffffffffffffffffffffffffffffff169060200190929190803515159060200190929190505050611774565b005b34801561089157600080fd5b506108cc6004803603810190808035600019169060200190929190803590602001909291908035600019169060200190929190505050611947565b005b3480156108da57600080fd5b506108fd6004803603810190808035600019169060200190929190505050611a6e565b60405180826000191660001916815260200191505060405180910390f35b34801561092757600080fd5b506109626004803603810190808035600019169060200190929190803590602001908201803590602001919091929391929390505050611a93565b005b34801561097057600080fd5b506109936004803603810190808035600019169060200190929190505050611baa565b6040518080602001828103825283818151815260200191508051906020019080838360005b838110156109d35780820151818401526020810190506109b8565b50505050905090810190601f168015610a005780820380516001836020036101000a031916815260200191505b509250505060405180910390f35b348015610a1a57600080fd5b50610a5d6004803603810190808035600019169060200190929190803573ffffffffffffffffffffffffffffffffffffffff169060200190929190505050611c67565b005b348015610a6b57600080fd5b50610a98600480360381019080803560001916906020019092919080359060200190929190505050611cea565b604051808273ffffffffffffffffffffffffffffffffffffffff1673ffffffffffffffffffffffffffffffffffffffff16815260200191505060405180910390f35b348015610ae657600080fd5b50610b216004803603810190808035600019169060200190929190803590602001908201803590602001919091929391929390505050611d47565b005b348015610b2f57600080fd5b50610b64600480360381019080803573ffffffffffffffffffffffffffffffffffffffff169060200190929190505050611e5e565b005b600660003373ffffffffffffffffffffffffffffffffffffffff1673ffffffffffffffffffffffffffffffffffffffff16815260200190815260200160002060009054906101000a900460ff161515610c4d576040517f08c379a00000000000000000000000000000000000000000000000000000000081526004018080602001828103825260248152602001807f4572726f723a20416363657373206e6f7420616c6c6f77656420746f2073746f81526020017f726167650000000000000000000000000000000000000000000000000000000081525060400191505060405180910390fd5b8060046000856000191660001916815260200190815260200160002083815481101515610c7657fe5b9060005260206000200181905550505050565b6004600083600019166000191681526020019081526020016000208190806001815401808255809150509060018203906000526020600020016000909192909190915055505050565b6060600460008360001916600019168152602001908152602001600020805480602002602001604051908101604052809291908181526020018280548015610d3957602002820191906000526020600020905b815481526020019060010190808311610d25575b50505050509050919050565b600660003373ffffffffffffffffffffffffffffffffffffffff1673ffffffffffffffffffffffffffffffffffffffff16815260200190815260200160002060009054906101000a900460ff161515610e2c576040517f08c379a00000000000000000000000000000000000000000000000000000000081526004018080602001828103825260248152602001807f4572726f723a20416363657373206e6f7420616c6c6f77656420746f2073746f81526020017f726167650000000000000000000000000000000000000000000000000000000081525060400191505060405180910390fd5b81816002600086600019166000191681526020019081526020016000209190610e56929190611fb3565b50505050565b600060016000836000191660001916815260200190815260200160002054600190049050919050565b6000600560008360001916600019168152602001908152602001600020805490509050919050565b6000600360008360001916600019168152602001908152602001600020805490509050919050565b600660003373ffffffffffffffffffffffffffffffffffffffff1673ffffffffffffffffffffffffffffffffffffffff16815260200190815260200160002060009054906101000a900460ff161515610fbc576040517f08c379a00000000000000000000000000000000000000000000000000000000081526004018080602001828103825260248152602001807f4572726f723a20416363657373206e6f7420616c6c6f77656420746f2073746f81526020017f726167650000000000000000000000000000000000000000000000000000000081525060400191505060405180910390fd5b8060016000846000191660001916815260200190815260200160002081600019169055505050565b600660003373ffffffffffffffffffffffffffffffffffffffff1673ffffffffffffffffffffffffffffffffffffffff16815260200190815260200160002060009054906101000a900460ff1615156110cb576040517f08c379a00000000000000000000000000000000000000000000000000000000081526004018080602001828103825260248152602001807f4572726f723a20416363657373206e6f7420616c6c6f77656420746f2073746f81526020017f726167650000000000000000000000000000000000000000000000000000000081525060400191505060405180910390fd5b8060010260016000846000191660001916815260200190815260200160002081600019169055505050565b600660003373ffffffffffffffffffffffffffffffffffffffff1673ffffffffffffffffffffffffffffffffffffffff16815260200190815260200160002060009054906101000a900460ff1615156111dd576040517f08c379a00000000000000000000000000000000000000000000000000000000081526004018080602001828103825260248152602001807f4572726f723a20416363657373206e6f7420616c6c6f77656420746f2073746f81526020017f726167650000000000000000000000000000000000000000000000000000000081525060400191505060405180910390fd5b81816003600086600019166000191681526020019081526020016000209190611207929190612033565b50505050565b60606005600083600019166000191681526020019081526020016000208054806020026020016040519081016040528092919081815260200182805480156112aa57602002820191906000526020600020905b8160009054906101000a900473ffffffffffffffffffffffffffffffffffffffff1673ffffffffffffffffffffffffffffffffffffffff1681526020019060010190808311611260575b50505050509050919050565b6000600360008460001916600019168152602001908152602001600020828154811015156112e057fe5b9060005260206000200154905092915050565b600660003373ffffffffffffffffffffffffffffffffffffffff1673ffffffffffffffffffffffffffffffffffffffff16815260200190815260200160002060009054906101000a900460ff1615156113da576040517f08c379a00000000000000000000000000000000000000000000000000000000081526004018080602001828103825260248152602001807f4572726f723a20416363657373206e6f7420616c6c6f77656420746f2073746f81526020017f726167650000000000000000000000000000000000000000000000000000000081525060400191505060405180910390fd5b81816002600086600019166000191681526020019081526020016000209190611404929190611fb3565b50505050565b600660003373ffffffffffffffffffffffffffffffffffffffff1673ffffffffffffffffffffffffffffffffffffffff16815260200190815260200160002060009054906101000a900460ff1615156114f1576040517f08c379a00000000000000000000000000000000000000000000000000000000081526004018080602001828103825260248152602001807f4572726f723a20416363657373206e6f7420616c6c6f77656420746f2073746f81526020017f726167650000000000000000000000000000000000000000000000000000000081525060400191505060405180910390fd5b806005600085600019166000191681526020019081526020016000208381548110151561151a57fe5b9060005260206000200160006101000a81548173ffffffffffffffffffffffffffffffffffffffff021916908373ffffffffffffffffffffffffffffffffffffffff160217905550505050565b6003600083600019166000191681526020019081526020016000208190806001815401808255809150509060018203906000526020600020016000909192909190915090600019169055505050565b6000809054906101000a900473ffffffffffffffffffffffffffffffffffffffff1681565b606060036000836000191660001916815260200190815260200160002080548060200260200160405190810160405280929190818152602001828054801561164657602002820191906000526020600020905b8154600019168152602001906001019080831161162e575b50505050509050919050565b60606002600083600019166000191681526020019081526020016000208054600181600116156101000203166002900480601f0160208091040260200160405190810160405280929190818152602001828054600181600116156101000203166002900480156117035780601f106116d857610100808354040283529160200191611703565b820191906000526020600020905b8154815290600101906020018083116116e657829003601f168201915b50505050509050919050565b6000600460008360001916600019168152602001908152602001600020805490509050919050565b60006004600084600019166000191681526020019081526020016000208281548110151561176157fe5b9060005260206000200154905092915050565b6000809054906101000a900473ffffffffffffffffffffffffffffffffffffffff1673ffffffffffffffffffffffffffffffffffffffff163373ffffffffffffffffffffffffffffffffffffffff161415156117cf57600080fd5b600073ffffffffffffffffffffffffffffffffffffffff168273ffffffffffffffffffffffffffffffffffffffff161415151561189a576040517f08c379a000000000000000000000000000000000000000000000000000000000815260040180806020018281038252602f8152602001807f4572726f723a2041646472657373207a65726f20697320696e76616c6964207381526020017f746f7261676520636f6e7472616374000000000000000000000000000000000081525060400191505060405180910390fd5b80600660008473ffffffffffffffffffffffffffffffffffffffff1673ffffffffffffffffffffffffffffffffffffffff16815260200190815260200160002060006101000a81548160ff0219169083151502179055508173ffffffffffffffffffffffffffffffffffffffff167fc139d49f05d574c44ade2e84d6e5ddbab8d65a476d7244af01a64b247788c29782604051808215151515815260200191505060405180910390a25050565b600660003373ffffffffffffffffffffffffffffffffffffffff1673ffffffffffffffffffffffffffffffffffffffff16815260200190815260200160002060009054906101000a900460ff161515611a2e576040517f08c379a00000000000000000000000000000000000000000000000000000000081526004018080602001828103825260248152602001807f4572726f723a20416363657373206e6f7420616c6c6f77656420746f2073746f81526020017f726167650000000000000000000000000000000000000000000000000000000081525060400191505060405180910390fd5b8060036000856000191660001916815260200190815260200160002083815481101515611a5757fe5b906000526020600020018160001916905550505050565b6000600160008360001916600019168152602001908152602001600020549050919050565b600660003373ffffffffffffffffffffffffffffffffffffffff1673ffffffffffffffffffffffffffffffffffffffff16815260200190815260200160002060009054906101000a900460ff161515611b7a576040517f08c379a00000000000000000000000000000000000000000000000000000000081526004018080602001828103825260248152602001807f4572726f723a20416363657373206e6f7420616c6c6f77656420746f2073746f81526020017f726167650000000000000000000000000000000000000000000000000000000081525060400191505060405180910390fd5b81816004600086600019166000191681526020019081526020016000209190611ba492919061208a565b50505050565b60606002600083600019166000191681526020019081526020016000208054600181600116156101000203166002900480601f016020809104026020016040519081016040528092919081815260200182805460018160011615610100020316600290048015611c5b5780601f10611c3057610100808354040283529160200191611c5b565b820191906000526020600020905b815481529060010190602001808311611c3e57829003601f168201915b50505050509050919050565b6005600083600019166000191681526020019081526020016000208190806001815401808255809150509060018203906000526020600020016000909192909190916101000a81548173ffffffffffffffffffffffffffffffffffffffff021916908373ffffffffffffffffffffffffffffffffffffffff160217905550505050565b600060056000846000191660001916815260200190815260200160002082815481101515611d1457fe5b9060005260206000200160009054906101000a900473ffffffffffffffffffffffffffffffffffffffff16905092915050565b600660003373ffffffffffffffffffffffffffffffffffffffff1673ffffffffffffffffffffffffffffffffffffffff16815260200190815260200160002060009054906101000a900460ff161515611e2e576040517f08c379a00000000000000000000000000000000000000000000000000000000081526004018080602001828103825260248152602001807f4572726f723a20416363657373206e6f7420616c6c6f77656420746f2073746f81526020017f726167650000000000000000000000000000000000000000000000000000000081525060400191505060405180910390fd5b81816005600086600019166000191681526020019081526020016000209190611e589291906120d7565b50505050565b6000809054906101000a900473ffffffffffffffffffffffffffffffffffffffff1673ffffffffffffffffffffffffffffffffffffffff163373ffffffffffffffffffffffffffffffffffffffff16141515611eb957600080fd5b600073ffffffffffffffffffffffffffffffffffffffff168173ffffffffffffffffffffffffffffffffffffffff1614151515611ef557600080fd5b8073ffffffffffffffffffffffffffffffffffffffff166000809054906101000a900473ffffffffffffffffffffffffffffffffffffffff1673ffffffffffffffffffffffffffffffffffffffff167f8be0079c531659141344cd1fd0a4f28419497f9722a3daafe3b4186f6b6457e060405160405180910390a3806000806101000a81548173ffffffffffffffffffffffffffffffffffffffff021916908373ffffffffffffffffffffffffffffffffffffffff16021790555050565b828054600181600116156101000203166002900490600052602060002090601f016020900481019282601f10611ff457803560ff1916838001178555612022565b82800160010185558215612022579182015b82811115612021578235825591602001919060010190612006565b5b50905061202f9190612177565b5090565b828054828255906000526020600020908101928215612079579160200282015b8281111561207857823560001916829060001916905591602001919060010190612053565b5b509050612086919061219c565b5090565b8280548282559060005260206000209081019282156120c6579160200282015b828111156120c55782358255916020019190600101906120aa565b5b5090506120d391906121c1565b5090565b828054828255906000526020600020908101928215612166579160200282015b8281111561216557823573ffffffffffffffffffffffffffffffffffffffff168260006101000a81548173ffffffffffffffffffffffffffffffffffffffff021916908373ffffffffffffffffffffffffffffffffffffffff160217905550916020019190600101906120f7565b5b50905061217391906121e6565b5090565b61219991905b8082111561219557600081600090555060010161217d565b5090565b90565b6121be91905b808211156121ba5760008160009055506001016121a2565b5090565b90565b6121e391905b808211156121df5760008160009055506001016121c7565b5090565b90565b61222691905b8082111561222257600081816101000a81549073ffffffffffffffffffffffffffffffffffffffff0219169055506001016121ec565b5090565b905600a165627a7a723058204184c1256da5971c57155d63104c4203bc8b0104f81c82520f3a0f70485feca70029",
  "source": "pragma solidity ^0.4.24;\n\nimport \"./DatabaseInterface.sol\";\nimport \"../../lib/ownership/Ownable.sol\";\n\ncontract Database is Ownable, DatabaseInterface {\n\tevent StorageModified(address indexed contractAddress, bool allowed);\n\n\tmapping (bytes32 => bytes32) data_bytes32;\n\tmapping (bytes32 => bytes) data_bytes;\n\tmapping (bytes32 => bytes32[]) data_bytesArray;\n\tmapping (bytes32 => int[]) data_intArray;\n\tmapping (bytes32 => address[]) data_addressArray;\n\tmapping (address => bool) allowed;\n\n\tconstructor() public {\n\n\t}\n\n\tmodifier storageOnly {\n\t\trequire(allowed[msg.sender], \"Error: Access not allowed to storage\");\n\t\t_;\n\t}\n\n\tfunction setStorageContract(address _storageContract, bool _allowed) public onlyOwner {\n\t\trequire(_storageContract != address(0), \"Error: Address zero is invalid storage contract\");\n\t\tallowed[_storageContract] = _allowed;\n\t\temit StorageModified(_storageContract, _allowed);\n\t}\n\n\t/*** Bytes32 ***/\n\tfunction getBytes32(bytes32 key) external view returns(bytes32) {\n\t\treturn data_bytes32[key];\n\t}\n\n\tfunction setBytes32(bytes32 key, bytes32 value) external storageOnly  {\n\t\tdata_bytes32[key] = value;\n\t}\n\n\t/*** Number **/\n\tfunction getNumber(bytes32 key) external view returns(uint256) {\n\t\treturn uint256(data_bytes32[key]);\n\t}\n\n\tfunction setNumber(bytes32 key, uint256 value) external storageOnly {\n\t\tdata_bytes32[key] = bytes32(value);\n\t}\n\n\t/*** Bytes ***/\n\tfunction getBytes(bytes32 key) external view returns(bytes) {\n\t\treturn data_bytes[key];\n\t}\n\n\tfunction setBytes(bytes32 key, bytes value) external storageOnly {\n\t\tdata_bytes[key] = value;\n\t}\n\n\t/*** String ***/\n\tfunction getString(bytes32 key) external view returns(string) {\n\t\treturn string(data_bytes[key]);\n\t}\n\n\tfunction setString(bytes32 key, string value) external storageOnly {\n\t\tdata_bytes[key] = bytes(value);\n\t}\n\n\t/*** Bytes Array ***/\n\tfunction getBytesArray(bytes32 key) external view returns (bytes32[]) {\n\t\treturn data_bytesArray[key];\n\t}\n\n\tfunction getBytesArrayIndex(bytes32 key, uint256 index) external view returns (bytes32) {\n\t\treturn data_bytesArray[key][index];\n\t}\n\n\tfunction getBytesArrayLength(bytes32 key) external view returns (uint256) {\n\t\treturn data_bytesArray[key].length;\n\t}\n\n\tfunction pushBytesArray(bytes32 key, bytes32 value) external {\n\t\tdata_bytesArray[key].push(value);\n\t}\n\n\tfunction setBytesArrayIndex(bytes32 key, uint256 index, bytes32 value) external storageOnly {\n\t\tdata_bytesArray[key][index] = value;\n\t}\n\n\tfunction setBytesArray(bytes32 key, bytes32[] value) external storageOnly {\n\t\tdata_bytesArray[key] = value;\n\t}\n\n\t/*** Int Array ***/\n\tfunction getIntArray(bytes32 key) external view returns (int[]) {\n\t\treturn data_intArray[key];\n\t}\n\n\tfunction getIntArrayIndex(bytes32 key, uint256 index) external view returns (int) {\n\t\treturn data_intArray[key][index];\n\t}\n\n\tfunction getIntArrayLength(bytes32 key) external view returns (uint256) {\n\t\treturn data_intArray[key].length;\n\t}\n\n\tfunction pushIntArray(bytes32 key, int value) external {\n\t\tdata_intArray[key].push(value);\n\t}\n\n\tfunction setIntArrayIndex(bytes32 key, uint256 index, int value) external storageOnly {\n\t\tdata_intArray[key][index] = value;\n\t}\n\n\tfunction setIntArray(bytes32 key, int[] value) external storageOnly {\n\t\tdata_intArray[key] = value;\n\t}\n\n\t/*** Address Array ***/\n\tfunction getAddressArray(bytes32 key) external view returns (address[]) {\n\t\treturn data_addressArray[key];\n\t}\n\n\tfunction getAddressArrayIndex(bytes32 key, uint256 index) external view returns (address) {\n\t\treturn data_addressArray[key][index];\n\t}\n\n\tfunction getAddressArrayLength(bytes32 key) external view returns (uint256) {\n\t\treturn data_addressArray[key].length;\n\t}\n\n\tfunction pushAddressArray(bytes32 key, address value) external {\n\t\tdata_addressArray[key].push(value);\n\t}\n\n\tfunction setAddressArrayIndex(bytes32 key, uint256 index, address value) external storageOnly {\n\t\tdata_addressArray[key][index] = value;\n\t}\n\n\tfunction setAddressArray(bytes32 key, address[] value) external storageOnly {\n\t\tdata_addressArray[key] = value;\n\t}\n}",
  "sourcePath": "/home/max/zprojects/zap-truffle-template/contracts/zap/contracts/platform/database/Database.sol",
  "compiler": {
    "name": "solc",
    "version": "0.4.24+commit.e67f0147.Emscripten.clang"
  },
  "schemaVersion": "2.0.1",
  "updatedAt": "2018-11-19T21:17:25.718Z"
}