{
  "contractName": "ExampleUser",
  "abi": [
    {
      "inputs": [
        {
          "name": "_zapCoord",
          "type": "address"
        }
      ],
      "payable": false,
      "stateMutability": "nonpayable",
      "type": "constructor"
    },
    {
      "anonymous": false,
      "inputs": [
        {
          "indexed": false,
          "name": "res1",
          "type": "string"
        },
        {
          "indexed": false,
          "name": "res2",
          "type": "string"
        },
        {
          "indexed": false,
          "name": "res3",
          "type": "string"
        },
        {
          "indexed": false,
          "name": "res4",
          "type": "string"
        }
      ],
      "name": "Results",
      "type": "event"
    },
    {
      "constant": false,
      "inputs": [
        {
          "name": "id",
          "type": "uint256"
        },
        {
          "name": "response",
          "type": "bytes32[]"
        }
      ],
      "name": "callback",
      "outputs": [],
      "payable": false,
      "stateMutability": "nonpayable",
      "type": "function"
    },
    {
      "constant": false,
      "inputs": [
        {
          "name": "id",
          "type": "uint256"
        },
        {
          "name": "response",
          "type": "int256[]"
        }
      ],
      "name": "callback",
      "outputs": [],
      "payable": false,
      "stateMutability": "nonpayable",
      "type": "function"
    },
    {
      "constant": false,
      "inputs": [
        {
          "name": "id",
          "type": "uint256"
        },
        {
          "name": "response1",
          "type": "string"
        },
        {
          "name": "response2",
          "type": "string"
        },
        {
          "name": "response3",
          "type": "string"
        },
        {
          "name": "response4",
          "type": "string"
        }
      ],
      "name": "callback",
      "outputs": [],
      "payable": false,
      "stateMutability": "nonpayable",
      "type": "function"
    },
    {
      "constant": false,
      "inputs": [
        {
          "name": "id",
          "type": "uint256"
        },
        {
          "name": "response1",
          "type": "string"
        }
      ],
      "name": "callback",
      "outputs": [],
      "payable": false,
      "stateMutability": "nonpayable",
      "type": "function"
    },
    {
      "constant": false,
      "inputs": [
        {
          "name": "id",
          "type": "uint256"
        },
        {
          "name": "response1",
          "type": "string"
        },
        {
          "name": "response2",
          "type": "string"
        },
        {
          "name": "response3",
          "type": "string"
        }
      ],
      "name": "callback",
      "outputs": [],
      "payable": false,
      "stateMutability": "nonpayable",
      "type": "function"
    },
    {
      "constant": false,
      "inputs": [
        {
          "name": "id",
          "type": "uint256"
        },
        {
          "name": "response1",
          "type": "string"
        },
        {
          "name": "response2",
          "type": "string"
        }
      ],
      "name": "callback",
      "outputs": [],
      "payable": false,
      "stateMutability": "nonpayable",
      "type": "function"
    },
    {
      "constant": false,
      "inputs": [
        {
          "name": "oracleAddr",
          "type": "address"
        },
        {
          "name": "query",
          "type": "string"
        },
        {
          "name": "specifier",
          "type": "bytes32"
        },
        {
          "name": "params",
          "type": "bytes32[]"
        }
      ],
      "name": "testQuery",
      "outputs": [
        {
          "name": "",
          "type": "uint256"
        }
      ],
      "payable": false,
      "stateMutability": "nonpayable",
      "type": "function"
    },
    {
      "constant": false,
      "inputs": [
        {
          "name": "id",
          "type": "uint256"
        }
      ],
      "name": "cancelQuery",
      "outputs": [],
      "payable": false,
      "stateMutability": "nonpayable",
      "type": "function"
    }
  ],
  "bytecode": "0x608060405234801561001057600080fd5b50604051602080610b08833981018060405281019080805190602001909291905050508073ffffffffffffffffffffffffffffffffffffffff1663358177736040518163ffffffff167c01000000000000000000000000000000000000000000000000000000000281526004018080602001828103825260088152602001807f4449535041544348000000000000000000000000000000000000000000000000815250602001915050602060405180830381600087803b1580156100d357600080fd5b505af11580156100e7573d6000803e3d6000fd5b505050506040513d60208110156100fd57600080fd5b8101908080519060200190929190505050600160006101000a81548173ffffffffffffffffffffffffffffffffffffffff021916908373ffffffffffffffffffffffffffffffffffffffff160217905550600160009054906101000a900473ffffffffffffffffffffffffffffffffffffffff166000806101000a81548173ffffffffffffffffffffffffffffffffffffffff021916908373ffffffffffffffffffffffffffffffffffffffff16021790555050610948806101c06000396000f30060806040526004361061008e576000357c0100000000000000000000000000000000000000000000000000000000900463ffffffff16806363b41fe9146100935780637237dc0b146100d857806399ff48af14610105578063a267cf071461014a578063b69a375d146101d7578063d075f20f1461021c578063d936a327146102b1578063f5795cd514610326575b600080fd5b34801561009f57600080fd5b506100d660048036038101908080359060200190929190803590602001908201803590602001919091929391929390505050610383565b005b3480156100e457600080fd5b5061010360048036038101908080359060200190929190505050610388565b005b34801561011157600080fd5b5061014860048036038101908080359060200190929190803590602001908201803590602001919091929391929390505050610433565b005b34801561015657600080fd5b506101d560048036038101908080359060200190929190803590602001908201803590602001919091929391929390803590602001908201803590602001919091929391929390803590602001908201803590602001919091929391929390803590602001908201803590602001919091929391929390505050610438565b005b3480156101e357600080fd5b5061021a600480360381019080803590602001909291908035906020019082018035906020019190919293919293905050506104fa565b005b34801561022857600080fd5b5061029b600480360381019080803573ffffffffffffffffffffffffffffffffffffffff16906020019092919080359060200190820180359060200191909192939192939080356000191690602001909291908035906020019082018035906020019190919293919293905050506105fb565b6040518082815260200191505060405180910390f35b3480156102bd57600080fd5b5061032460048036038101908080359060200190929190803590602001908201803590602001919091929391929390803590602001908201803590602001919091929391929390803590602001908201803590602001919091929391929390505050610759565b005b34801561033257600080fd5b5061038160048036038101908080359060200190929190803590602001908201803590602001919091929391929390803590602001908201803590602001919091929391929390505050610830565b005b505050565b6000809054906101000a900473ffffffffffffffffffffffffffffffffffffffff1673ffffffffffffffffffffffffffffffffffffffff16637237dc0b826040518263ffffffff167c010000000000000000000000000000000000000000000000000000000002815260040180828152602001915050600060405180830381600087803b15801561041857600080fd5b505af115801561042c573d6000803e3d6000fd5b5050505050565b505050565b7fb91add9777a88054a062cc1ca78ca1e20a6e208bf9f363609f35c18d493777b48888888888888888604051808060200180602001806020018060200185810385528d8d82818152602001925080828437820191505085810384528b8b82818152602001925080828437820191505085810383528989828181526020019250808284378201915050858103825287878281815260200192508082843782019150509c5050505050505050505050505060405180910390a1505050505050505050565b7fb91add9777a88054a062cc1ca78ca1e20a6e208bf9f363609f35c18d493777b482826040518080602001806020018060200180602001858103855287878281815260200192508082843782019150508581038452600c8152602001807f4e4f54415641494c41424c4500000000000000000000000000000000000000008152506020018581038352600c8152602001807f4e4f54415641494c41424c4500000000000000000000000000000000000000008152506020018581038252600c8152602001807f4e4f54415641494c41424c450000000000000000000000000000000000000000815250602001965050505050505060405180910390a1505050565b6000806000809054906101000a900473ffffffffffffffffffffffffffffffffffffffff1673ffffffffffffffffffffffffffffffffffffffff16637de7cc668989898989896040518763ffffffff167c0100000000000000000000000000000000000000000000000000000000028152600401808773ffffffffffffffffffffffffffffffffffffffff1673ffffffffffffffffffffffffffffffffffffffff16815260200180602001856000191660001916815260200180602001838103835288888281815260200192508082843782019150508381038252858582818152602001925060200280828437820191505098505050505050505050602060405180830381600087803b15801561071157600080fd5b505af1158015610725573d6000803e3d6000fd5b505050506040513d602081101561073b57600080fd5b81019080805190602001909291905050509050509695505050505050565b7fb91add9777a88054a062cc1ca78ca1e20a6e208bf9f363609f35c18d493777b4868686868686604051808060200180602001806020018060200185810385528b8b82818152602001925080828437820191505085810384528989828181526020019250808284378201915050858103835287878281815260200192508082843782019150508581038252600c8152602001807f4e4f54415641494c41424c4500000000000000000000000000000000000000008152506020019a505050505050505050505060405180910390a150505050505050565b7fb91add9777a88054a062cc1ca78ca1e20a6e208bf9f363609f35c18d493777b484848484604051808060200180602001806020018060200185810385528989828181526020019250808284378201915050858103845287878281815260200192508082843782019150508581038352600c8152602001807f4e4f54415641494c41424c4500000000000000000000000000000000000000008152506020018581038252600c8152602001807f4e4f54415641494c41424c4500000000000000000000000000000000000000008152506020019850505050505050505060405180910390a150505050505600a165627a7a72305820f9c0f0f97d6ac150facbaf639a1b8dceb253afb2d460e45fb83345eae93538290029",
  "source": "pragma solidity ^0.4.0;\n//Example of requiring zap contracts Registry\nimport \"./zap/contracts/platform/registry/Registry.sol\";\nimport \"./ZapInterface.sol\";\ncontract ExampleOracle  {\n\tevent RecievedQuery(string query, bytes32 endpoint, bytes32[] params);\n\n    \n\tZapInterface dispatch;\n    ZapInterface registry;\n\n    address dispatchAddress;\n    address registryAddress;\n\n    bytes32 public spec1 = \"ExampleEndpoint\";\n    int256[] curve1 = [1,1,1000000000];\n\n    constructor(address _zapCoord) public{\n        registryAddress = ZapInterface(_zapCoord).getContract(\"REGISTRY\");\n        registry = ZapInterface(registryAddress);\n        dispatchAddress = ZapInterface(_zapCoord).getContract(\"DISPATCH\");\n        dispatch = ZapInterface(dispatchAddress);\n        \n        // initialize in registry\n        bytes32 title = \"TestOracle\";\n\n        registry.initiateProvider(12345, title);\n        registry.initiateProviderCurve(spec1, curve1, address(0));\n    }\n\n    // middleware function for handling queries\n\tfunction receive(uint256 id, string userQuery, bytes32 endpoint, bytes32[] endpointParams, bool onchainSubscriber) external {\n        emit RecievedQuery(userQuery, endpoint, endpointParams);\n        endpoint1(id);\n\t}\n\tfunction endpoint1(uint256 id){\n\t\t// dispatch.respond1(id, \"String1\");\n\t\t// dispatch.respond2(id, \"String1\",\"String2\");\n\t\t// dispatch.respond3(id, \"String1\",\"String2\",\"String3\");\n\t\t// dispatch.respond4(id, \"String1\",\"String2\",\"String3\",\"String4\");\n\n\t}\n\n    \n\n}\n\n/* Test Subscriber Client */\ncontract ExampleUser{\n\n    \n\tZapInterface dispatch;\n    \n\n    address dispatchAddress;\n    event Results(string res1, string res2, string res3, string res4);\n\n\tconstructor(address _zapCoord) public {\n\t\t\n        dispatchAddress = ZapInterface(_zapCoord).getContract(\"DISPATCH\");\n        dispatch = ZapInterface(dispatchAddress);\n\n        \n        \n\t}\n\n    // Choose the type of callback/data you expect\n    function callback(uint256 id, bytes32[] response) external {\n        \n    }\n    function callback(uint256 id, int[] response) external {\n        \n    }\n\n    function callback(uint256 id, string response1) external {\n    \temit Results(response1, \"NOTAVAILABLE\", \"NOTAVAILABLE\", \"NOTAVAILABLE\");\n    }\n    \n    function callback(uint256 id, string response1, string response2) external {\n        emit Results(response1, response2, \"NOTAVAILABLE\", \"NOTAVAILABLE\");\n    }\n    function callback(uint256 id, string response1, string response2, string response3) external {\n    \temit Results(response1, response2, response3, \"NOTAVAILABLE\");\n    }\n    \n    function callback(uint256 id, string response1, string response2, string response3, string response4) external {\n        emit Results(response1, response2, response3, response4);\n    }\n\n    function testQuery(address oracleAddr, string query, bytes32 specifier, bytes32[] params) external returns (uint256) {\n    \tuint256 id = dispatch.query(oracleAddr, query, specifier, params);\n    }\n\n\n    // attempts to cancel an existing query\n    function cancelQuery(uint256 id) external {\n        dispatch.cancelQuery(id);\n    }\n\n}\n",
  "sourcePath": "/home/max/zprojects/zap-truffle-template/contracts/DispatchExample.sol",
  "compiler": {
    "name": "solc",
    "version": "0.4.24+commit.e67f0147.Emscripten.clang"
  },
  "schemaVersion": "2.0.1",
  "updatedAt": "2018-11-19T21:46:32.586Z"
}