{
  "contractName": "TestProvider",
  "abi": [
    {
      "constant": true,
      "inputs": [],
      "name": "spec2",
      "outputs": [
        {
          "name": "",
          "type": "bytes32"
        }
      ],
      "payable": false,
      "stateMutability": "view",
      "type": "function"
    },
    {
      "constant": true,
      "inputs": [],
      "name": "spec1",
      "outputs": [
        {
          "name": "",
          "type": "bytes32"
        }
      ],
      "payable": false,
      "stateMutability": "view",
      "type": "function"
    },
    {
      "constant": true,
      "inputs": [],
      "name": "spec3",
      "outputs": [
        {
          "name": "",
          "type": "bytes32"
        }
      ],
      "payable": false,
      "stateMutability": "view",
      "type": "function"
    },
    {
      "constant": true,
      "inputs": [],
      "name": "spec4",
      "outputs": [
        {
          "name": "",
          "type": "bytes32"
        }
      ],
      "payable": false,
      "stateMutability": "view",
      "type": "function"
    },
    {
      "inputs": [
        {
          "name": "registryAddress",
          "type": "address"
        },
        {
          "name": "isBad",
          "type": "bool"
        }
      ],
      "payable": false,
      "stateMutability": "nonpayable",
      "type": "constructor"
    },
    {
      "anonymous": false,
      "inputs": [
        {
          "indexed": false,
          "name": "query",
          "type": "string"
        },
        {
          "indexed": false,
          "name": "endpoint",
          "type": "bytes32"
        },
        {
          "indexed": false,
          "name": "params",
          "type": "bytes32[]"
        }
      ],
      "name": "RecievedQuery",
      "type": "event"
    },
    {
      "anonymous": false,
      "inputs": [
        {
          "indexed": false,
          "name": "res",
          "type": "uint256"
        },
        {
          "indexed": false,
          "name": "b",
          "type": "bytes32"
        },
        {
          "indexed": false,
          "name": "s",
          "type": "string"
        }
      ],
      "name": "TEST",
      "type": "event"
    },
    {
      "constant": false,
      "inputs": [
        {
          "name": "id",
          "type": "uint256"
        },
        {
          "name": "userQuery",
          "type": "string"
        },
        {
          "name": "endpoint",
          "type": "bytes32"
        },
        {
          "name": "endpointParams",
          "type": "bytes32[]"
        },
        {
          "name": "onchainSubscriber",
          "type": "bool"
        }
      ],
      "name": "receive",
      "outputs": [],
      "payable": false,
      "stateMutability": "nonpayable",
      "type": "function"
    }
  ],
  "bytecode": "0x60806040527f48656c6c6f3f00000000000000000000000000000000000000000000000000006000906000191690557f52657665727365000000000000000000000000000000000000000000000000006001906000191690557f41646400000000000000000000000000000000000000000000000000000000006002906000191690557f446f75626c65000000000000000000000000000000000000000000000000000060039060001916905560a060405190810160405280600363ffffffff168152602001600063ffffffff168152602001600063ffffffff168152602001600263ffffffff168152602001633b9aca0063ffffffff1681525060059060056200010c929190620008dc565b503480156200011a57600080fd5b506040516040806200173083398101806040528101908080519060200190929190805190602001909291905050506000606083600660006101000a81548173ffffffffffffffffffffffffffffffffffffffff021916908373ffffffffffffffffffffffffffffffffffffffff16021790555082600460006101000a81548160ff0219169083151502179055507f54657374436f6e7472616374000000000000000000000000000000000000000091506002604051908082528060200260200182016040528015620001fb5781602001602082028038833980820191505090505b5090507f70310000000000000000000000000000000000000000000000000000000000008160008151811015156200022f57fe5b9060200190602002019060001916908160001916815250507f70320000000000000000000000000000000000000000000000000000000000008160018151811015156200027857fe5b906020019060200201906000191690816000191681525050600660009054906101000a900473ffffffffffffffffffffffffffffffffffffffff1673ffffffffffffffffffffffffffffffffffffffff1663af87c833613039846040518363ffffffff167c010000000000000000000000000000000000000000000000000000000002815260040180838152602001826000191660001916815260200192505050602060405180830381600087803b1580156200033457600080fd5b505af115801562000349573d6000803e3d6000fd5b505050506040513d60208110156200036057600080fd5b810190808051906020019092919050505050600660009054906101000a900473ffffffffffffffffffffffffffffffffffffffff1673ffffffffffffffffffffffffffffffffffffffff1663238b3aed600054600560006040518463ffffffff167c0100000000000000000000000000000000000000000000000000000000028152600401808460001916600019168152602001806020018373ffffffffffffffffffffffffffffffffffffffff1673ffffffffffffffffffffffffffffffffffffffff16815260200182810382528481815481526020019150805480156200046957602002820191906000526020600020905b81548152602001906001019080831162000454575b5050945050505050602060405180830381600087803b1580156200048c57600080fd5b505af1158015620004a1573d6000803e3d6000fd5b505050506040513d6020811015620004b857600080fd5b810190808051906020019092919050505050600660009054906101000a900473ffffffffffffffffffffffffffffffffffffffff1673ffffffffffffffffffffffffffffffffffffffff1663238b3aed600154600560006040518463ffffffff167c0100000000000000000000000000000000000000000000000000000000028152600401808460001916600019168152602001806020018373ffffffffffffffffffffffffffffffffffffffff1673ffffffffffffffffffffffffffffffffffffffff1681526020018281038252848181548152602001915080548015620005c157602002820191906000526020600020905b815481526020019060010190808311620005ac575b5050945050505050602060405180830381600087803b158015620005e457600080fd5b505af1158015620005f9573d6000803e3d6000fd5b505050506040513d60208110156200061057600080fd5b810190808051906020019092919050505050600660009054906101000a900473ffffffffffffffffffffffffffffffffffffffff1673ffffffffffffffffffffffffffffffffffffffff1663238b3aed600254600560006040518463ffffffff167c0100000000000000000000000000000000000000000000000000000000028152600401808460001916600019168152602001806020018373ffffffffffffffffffffffffffffffffffffffff1673ffffffffffffffffffffffffffffffffffffffff16815260200182810382528481815481526020019150805480156200071957602002820191906000526020600020905b81548152602001906001019080831162000704575b5050945050505050602060405180830381600087803b1580156200073c57600080fd5b505af115801562000751573d6000803e3d6000fd5b505050506040513d60208110156200076857600080fd5b810190808051906020019092919050505050600660009054906101000a900473ffffffffffffffffffffffffffffffffffffffff1673ffffffffffffffffffffffffffffffffffffffff1663238b3aed600354600560006040518463ffffffff167c0100000000000000000000000000000000000000000000000000000000028152600401808460001916600019168152602001806020018373ffffffffffffffffffffffffffffffffffffffff1673ffffffffffffffffffffffffffffffffffffffff16815260200182810382528481815481526020019150805480156200087157602002820191906000526020600020905b8154815260200190600101908083116200085c575b5050945050505050602060405180830381600087803b1580156200089457600080fd5b505af1158015620008a9573d6000803e3d6000fd5b505050506040513d6020811015620008c057600080fd5b810190808051906020019092919050505050505050506200095e565b82805482825590600052602060002090810192821562000923579160200282015b8281111562000922578251829063ffffffff16905591602001919060010190620008fd565b5b50905062000932919062000936565b5090565b6200095b91905b80821115620009575760008160009055506001016200093d565b5090565b90565b610dc2806200096e6000396000f30060806040526004361061006d576000357c0100000000000000000000000000000000000000000000000000000000900463ffffffff1680632ee2742e1461007257806348cf129a146100a55780637ff94b62146100d8578063c5d7a7251461010b578063de2615831461013e575b600080fd5b34801561007e57600080fd5b506100876101b5565b60405180826000191660001916815260200191505060405180910390f35b3480156100b157600080fd5b506100ba6101bb565b60405180826000191660001916815260200191505060405180910390f35b3480156100e457600080fd5b506100ed6101c1565b60405180826000191660001916815260200191505060405180910390f35b34801561011757600080fd5b506101206101c7565b60405180826000191660001916815260200191505060405180910390f35b34801561014a57600080fd5b506101b36004803603810190808035906020019092919080359060200190820180359060200191909192939192939080356000191690602001909291908035906020019082018035906020019190919293919293908035151590602001909291905050506101cd565b005b60015481565b60005481565b60025481565b60035481565b6000807fb1d30540f0019c1e94a292da7a6f164844c5d2e3dee75e0b3a6a66e4e9a4e15388888888886040518080602001856000191660001916815260200180602001838103835288888281815260200192508082843782019150508381038252858582818152602001925060200280828437820191505097505050505050505060405180910390a1600460009054906101000a900460ff1615610270576107a8565b85915082156107a757816040516020018082600019166000191681526020019150506040516020818303038152906040526040518082805190602001908083835b6020831015156102d657805182526020820191506020810190506020830392506102b1565b6001836020036101000a038019825116818451168082178552505050505050905001915050604051809103902090506000546040516020018082600019166000191681526020019150506040516020818303038152906040526040518082805190602001908083835b602083101515610364578051825260208201915060208101905060208303925061033f565b6001836020036101000a038019825116818451168082178552505050505050905001915050604051809103902060001916816000191614156104115761040c8989898080601f0160208091040260200160405190810160405280939291908181526020018383808284378201915050505050508787808060200260200160405190810160405280939291908181526020018383602002808284378201915050505050506107b3565b6107a6565b6001546040516020018082600019166000191681526020019150506040516020818303038152906040526040518082805190602001908083835b602083101515610470578051825260208201915060208101905060208303925061044b565b6001836020036101000a0380198251168184511680821785525050505050509050019150506040518091039020600019168160001916141561051d576105188989898080601f01602080910402602001604051908101604052809392919081815260200183838082843782019150505050505087878080602002602001604051908101604052809392919081815260200183836020028082843782019150505050505061089c565b6107a5565b6002546040516020018082600019166000191681526020019150506040516020818303038152906040526040518082805190602001908083835b60208310151561057c5780518252602082019150602081019050602083039250610557565b6001836020036101000a03801982511681845116808217855250505050505090500191505060405180910390206000191681600019161415610629576106248989898080601f0160208091040260200160405190810160405280939291908181526020018383808284378201915050505050508787808060200260200160405190810160405280939291908181526020018383602002808284378201915050505050506109c7565b6107a4565b6003546040516020018082600019166000191681526020019150506040516020818303038152906040526040518082805190602001908083835b6020831015156106885780518252602082019150602081019050602083039250610663565b6001836020036101000a03801982511681845116808217855250505050505090500191505060405180910390206000191681600019161415610735576107308989898080601f016020809104026020016040519081016040528093929190818152602001838380828437820191505050505050878780806020026020016040519081016040528093929190818152602001838360200280828437820191505050505050610b6b565b6107a3565b6040517f08c379a00000000000000000000000000000000000000000000000000000000081526004018080602001828103825260108152602001807f496e76616c696420656e64706f696e740000000000000000000000000000000081525060200191505060405180910390fd5b5b5b5b5b5b505050505050505050565b3373ffffffffffffffffffffffffffffffffffffffff16636843581c846040518263ffffffff167c010000000000000000000000000000000000000000000000000000000002815260040180828152602001806020018281038252600b8152602001807f48656c6c6f20576f726c6400000000000000000000000000000000000000000081525060200192505050602060405180830381600087803b15801561085b57600080fd5b505af115801561086f573d6000803e3d6000fd5b505050506040513d602081101561088557600080fd5b810190808051906020019092919050505050505050565b60606108a783610c8d565b90503373ffffffffffffffffffffffffffffffffffffffff16636843581c85836040518363ffffffff167c01000000000000000000000000000000000000000000000000000000000281526004018083815260200180602001828103825283818151815260200191508051906020019080838360005b8381101561093857808201518184015260208101905061091d565b50505050905090810190601f1680156109655780820380516001836020036101000a031916815260200191505b509350505050602060405180830381600087803b15801561098557600080fd5b505af1158015610999573d6000803e3d6000fd5b505050506040513d60208110156109af57600080fd5b81019080805190602001909291905050505050505050565b6000806000606060009350600092505b8451831015610a105784838151811015156109ee57fe5b90602001906020020151600190049150818401935082806001019350506109d7565b6001604051908082528060200260200182016040528015610a405781602001602082028038833980820191505090505b50905083600102816000815181101515610a5657fe5b9060200190602002019060001916908160001916815250503373ffffffffffffffffffffffffffffffffffffffff16630cbe69a188836040518363ffffffff167c01000000000000000000000000000000000000000000000000000000000281526004018083815260200180602001828103825283818151815260200191508051906020019060200280838360005b83811015610b00578082015181840152602081019050610ae5565b505050509050019350505050602060405180830381600087803b158015610b2657600080fd5b505af1158015610b3a573d6000803e3d6000fd5b505050506040513d6020811015610b5057600080fd5b81019080805190602001909291905050505050505050505050565b3373ffffffffffffffffffffffffffffffffffffffff1663fedea288846040518263ffffffff167c0100000000000000000000000000000000000000000000000000000000028152600401808281526020018060200180602001838103835260058152602001807f48656c6c6f000000000000000000000000000000000000000000000000000000815250602001838103825260058152602001807f576f726c640000000000000000000000000000000000000000000000000000008152506020019350505050602060405180830381600087803b158015610c4c57600080fd5b505af1158015610c60573d6000803e3d6000fd5b505050506040513d6020811015610c7657600080fd5b810190808051906020019092919050505050505050565b606080606080600085935083516040519080825280601f01601f191660200182016040528015610ccc5781602001602082028038833980820191505090505b509250829150600090505b8351811015610d8a578381815181101515610cee57fe5b9060200101517f010000000000000000000000000000000000000000000000000000000000000090047f0100000000000000000000000000000000000000000000000000000000000000028260018387510303815181101515610d4d57fe5b9060200101907effffffffffffffffffffffffffffffffffffffffffffffffffffffffffffff1916908160001a9053508080600101915050610cd7565b819450505050509190505600a165627a7a72305820084fa5d3dbc1bbc1632343c47dfb83856bca1d4a7b0e9d36e173a835e1b324de0029",
  "source": "pragma solidity ^0.4.24;\n\nimport \"./Client.sol\";\nimport \"../../platform/dispatch/DispatchInterface.sol\";\nimport \"../../platform/bondage/BondageInterface.sol\";\nimport \"../../platform/registry/RegistryInterface.sol\";\nimport \"./OnChainProvider.sol\";\nimport \"../ERC20.sol\";\n\ncontract TestProvider is OnChainProvider {\n\tevent RecievedQuery(string query, bytes32 endpoint, bytes32[] params);\n\n    event TEST(uint res, bytes32 b, string s);\n\n    bytes32 public spec1 = \"Hello?\";\n    bytes32 public spec2 = \"Reverse\";\n    bytes32 public spec3 = \"Add\";\n    bytes32 public spec4 = \"Double\";\n\n    bool AM_A_BAD_ORACLE;\n\n    /* Endpoints to Functions:\n    spec1: Hello? -> returns \"Hello World\"\n    spec2: Reverse -> returns the query string in reverse\n    spec3: Add -> Adds up the values in endpointParams \n    */\n\n    // curve 2x^2\n    int[] curve = [3, 0, 0, 2, 1000000000];\n\n    RegistryInterface registry;\n\n    // middleware function for handling queries\n\tfunction receive(uint256 id, string userQuery, bytes32 endpoint, bytes32[] endpointParams, bool onchainSubscriber) external {\n        emit RecievedQuery(userQuery, endpoint, endpointParams);\n        if(AM_A_BAD_ORACLE) return;\n        bytes32 _endpoint = endpoint;\n        if(onchainSubscriber) {\n            bytes32 hash = keccak256(abi.encodePacked(_endpoint));\n\n            if(hash == keccak256(abi.encodePacked(spec1))){\n                endpoint1(id, userQuery, endpointParams);\n            } else if (hash == keccak256(abi.encodePacked(spec2))){               \n                endpoint2(id, userQuery, endpointParams);\n            } else if (hash == keccak256(abi.encodePacked(spec3))){\n                endpoint3(id, userQuery, endpointParams);\n            } else if (hash == keccak256(abi.encodePacked(spec4))){\n                endpoint4(id, userQuery, endpointParams);\n            } else {\n                revert(\"Invalid endpoint\");\n            }\n        } // else: Do nothing (onchain only)\n\t}\n\n    constructor(address registryAddress, bool isBad) public{\n        registry = RegistryInterface(registryAddress);\n        AM_A_BAD_ORACLE = isBad;\n\n        // initialize in registry\n        bytes32 title = \"TestContract\";\n\n        bytes32[] memory params = new bytes32[](2);\n        params[0] = \"p1\";\n        params[1] = \"p2\";\n\n        registry.initiateProvider(12345, title);\n\n        registry.initiateProviderCurve(spec1, curve, address(0));\n        registry.initiateProviderCurve(spec2, curve, address(0));\n        registry.initiateProviderCurve(spec3, curve, address(0));\n        registry.initiateProviderCurve(spec4, curve, address(0));\n    }\n\n\n    // return Hello World to query-maker\n    function endpoint1(uint256 id, string /* userQuery */, bytes32[] /* endpointParams */) internal{\n        DispatchInterface(msg.sender).respond1(id, \"Hello World\");\n    }\n\n    // return the hash of the query\n    function endpoint2(uint256 id, string userQuery, bytes32[] /* endpointParams */) internal{\n        // endpointParams\n        string memory reversed = reverseString(userQuery);\n        DispatchInterface(msg.sender).respond1(id, reversed);\n    }\n\n     // returns the sum of all values in endpointParams\n    function endpoint3(uint256 id, string /* userQuery */, bytes32[] endpointParams) internal{\n        uint sum = 0;\n        for(uint i = 0; i<endpointParams.length; i++){\n            uint value = uint(endpointParams[i]);\n            sum += value;\n        }\n\n        bytes32[] memory res = new bytes32[](1);\n        res[0] = bytes32(sum);\n\n        DispatchInterface(msg.sender).respondBytes32Array(id, res);\n    }\n\n    // returns the sum of all values in endpointParams\n    function endpoint4(uint256 id, string /* userQuery */, bytes32[] /* endpointParams */) internal{\n        DispatchInterface(msg.sender).respond2(id, \"Hello\", \"World\");\n    }\n\n    function reverseString(string _base) internal pure returns (string){\n        bytes memory _baseBytes = bytes(_base);\n        string memory _tempValue = new string(_baseBytes.length);\n        bytes memory _newValue = bytes(_tempValue);\n\n        for(uint i=0;i<_baseBytes.length;i++){\n            _newValue[ _baseBytes.length - i - 1] = _baseBytes[i];\n        }\n\n        return string(_newValue);\n    }\n\n\n    function bytes32ToString (bytes32 data) internal pure returns (string) {\n        bytes memory bytesString = new bytes(32);\n        for (uint j=0; j<32; j++) {\n            byte char = byte(bytes32(uint(data) * 2 ** (8 * j)));\n            if (char != 0) {\n                bytesString[j] = char;\n            }\n        }\n        return string(bytesString);\n    }\n\n}\n\n/* Test Subscriber Client */\ncontract TestClient is Client1, Client2{\n\n    event MadeQuery(address oracle, string query, uint256 id);\n\tevent Result1(uint256 id, string response1);\n    event Result1(uint256 id, bytes32 response1);\n    event Result2(uint256 id, string response1, string response2);\n\n\tERC20 token;\n\tDispatchInterface dispatch;\n\tBondageInterface bondage;\n    RegistryInterface registry;\n\n\tconstructor(address tokenAddress, address dispatchAddress, address bondageAddress, address registryAddress) public {\n\t\ttoken = ERC20(tokenAddress);\n\t\tdispatch = DispatchInterface(dispatchAddress);\n\t\tbondage = BondageInterface(bondageAddress);\n        registry = RegistryInterface(registryAddress);\n\t}\n\n    /*\n    Implements overloaded callback functions for Client1\n    */\n    function callback(uint256 id, string response1) external {\n    \tstring memory _response1 = response1;\n    \temit Result1(id, _response1);\n        // do something with result\n    }\n\n    function callback(uint256 id, bytes32[] response) external {\n\n        emit Result1(id, response[0]);\n        // do something with result\n    }\n\n    // Client2 callback\n    function callback(uint256 id, string response1, string response2) external {\n        emit Result2(id, response1, response2);\n        // do something with result\n    }\n\n    function testQuery(address oracleAddr, string query, bytes32 specifier, bytes32[] params) external returns (uint256) {\n    \tuint256 id = dispatch.query(oracleAddr, query, specifier, params);\n        emit MadeQuery(oracleAddr, query, id);\n        return id;\n    }\n\n    function stringToBytes32(string memory source) internal pure returns (bytes32 result) {\n    \tbytes memory tempEmptyStringTest = bytes(source);\n\n    \tif (tempEmptyStringTest.length == 0) {\n    \t\treturn 0x0;\n    \t}\n    \tassembly {\n    \t\tresult := mload(add(source, 32))\n    \t}\n    }\n\n    // attempts to cancel an existing query\n    function cancelQuery(uint256 id) external {\n        dispatch.cancelQuery(id);\n    }\n\n}\n",
  "sourcePath": "/home/max/zprojects/zap-truffle-template/contracts/zap/contracts/lib/platform/TestContracts.sol",
  "compiler": {
    "name": "solc",
    "version": "0.4.24+commit.e67f0147.Emscripten.clang"
  },
  "schemaVersion": "2.0.1",
  "updatedAt": "2018-11-19T21:46:32.656Z"
}